:020000040000FA
:10000000FC7F0020790B0000690B00006D0B0000E5
:1000100000000000000000000000000000000000E0
:10002000000000000000000000000000710B000054
:100030000000000000000000750B0000CD0C000067
:1000400010B5064C2378002B07D1054B002B02D0AE
:10005000044800E000BF0123237010BD5C000020B5
:1000600000000000D01E000008B5084B002B03D094
:100070000748084900E000BF07480368002B03D089
:10008000064B002B00D0984708BDC046000000007A
:10009000D01E00006000002058000020000000007A
:1000A000064B0322104002040549586808401043DB
:1000B0005860DA695107FCD47047C0460008004216
:1000C000FFFFFCFF38B5284A284B5A805A7852B2B5
:1000D000002AFBDB264B04211A6A264D0A431A62CA
:1000E0002B68012213432B602A680123214C1A42FA
:1000F000FAD1E2691A42F7D11423236041001E4865
:1001000001F008FD421EE068FF231A4098431043A7
:10011000E0602368022213432360EA69154B9107CC
:10012000FBD45A8B30218A4310210A435A83EB694E
:1001300001205A07FBD4114B02241A7802431A708B
:100140000F4B0F22197891431970197821431970B8
:100150000C490C782043087019780A401A701A78F4
:1001600020210A431A7038BD14400000000C0040E2
:100170000004004000080042006CDC0248440041DA
:100180003444004149440041F7B500230F1C01925B
:100190001D1C994254D001212A4E4000084333705F
:1001A000C1B2294B0322588B1C1C000910400128A6
:1001B00004D05B8B1B091A40022AF2D1606AC00A84
:1001C000C00208436062217E1F4B0122880708D4C9
:1001D000197E1142F7D05968C02292020A435A6030
:1001E00003E05B8B9B08134201D0002528E03270AE
:1001F000237E9907FCD5154A154B117801251970F6
:100200006268BD4212D0134B022013406360FFF7B7
:1002100047FF33785A1C3270227E9007FCD50B4979
:100220000B480A780135C254EDB2E9E78023DB02BE
:10023000134363600199002902D00320FFF730FFC8
:10024000281CFEBD7800002000080042280800425B
:1002500099000020FFFFFBFF024B00221870024BA9
:100260001A7070477A00002079000020F8B5274BFB
:100270001C786400E4B2264B03215D8B1A1C2D0907
:100280000D40012D04D05B8B1B0919400229F2D1CE
:10029000536ADB0ADB0223435362117E01231942B6
:1002A000FBD01B49498B8908194204D00320FFF772
:1002B000F7FE022427E017490D782B1C002B11D0E4
:1002C000154EEC1A365D154C2670114E177E012422
:1002D000768B274202D12642F7D00BE0B6082642A1
:1002E0000ED007E00B701C1C00280CD00320FFF779
:1002F000D7FE08E003200B700324FFF7D1FE02E0D5
:10030000013BDBB2DAE7201CF8BDC0467A000020D2
:1003100000080042790000207B00002028080042ED
:10032000034A1378591C1170024AD05401207047B7
:10033000790000207B000020154A164B1178002917
:1003400009D11549187809784118C9B21970802067
:1003500012494003C86111780131C9B2117019788E
:10036000F02902D81978092909D80B4908784042A0
:10037000C0B20870187809784118C9B2197012789B
:100380001B789A4203D18022044B5203DA617047F2
:100390007D000020010000200000002000440041FA
:1003A00010B5041C6B20FFF757FF201CFFF7B8FFA8
:1003B0000120FFF75BFF01210A1C6B20FFF7E4FE21
:1003C000014B187810BDC0469900002038B5051CB7
:1003D0006B200C1CFFF740FF281CFFF7A1FF201C1F
:1003E000FFF79EFF0120FFF741FF022038BD08B54F
:1003F0000520FFF7D5FFCE23011C19400520FFF78C
:10040000E5FF012008BD000010B5041C0020FFF727
:10041000C7FF78232D4A9843C1B2944242D018D8DE
:100420002B4B9C4238D009D82A4B9C4230D02A4BC7
:100430009C422FD0294B9C4245D13FE0284B9C4207
:100440002CD0284B9C422BD0274B9C423BD12023C5
:1004500033E0264A94422BD00AD8254B9C4223D025
:10046000244B9C4222D0244B9C422CD1402324E09C
:10047000224A94421ED004D8214B9C4223D16023AF
:100480001BE0204A944217D01F4A944215D01AE02C
:10049000082312E0102310E018230EE028230CE0BC
:1004A00030230AE0382308E0482306E0502304E024
:1004B000582302E0682300E0702319430020FFF76F
:1004C00085FF012000E0002010BDC046581100004B
:1004D00018100000780F0000C80F0000280F00005F
:1004E000B810000008110000681000009812000009
:1004F000F811000048120000A81100003813000095
:10050000E812000088130000D813000010B5041C86
:100510000020FFF745FF07239843E122C1B2920074
:10052000944220D008D8962C18D0FA235B009C4225
:1005300017D0642C22D11CE0114A944215D005D862
:100540009623DB009C4219D1042311E0FA22D20049
:1005500094420CD00B4A94420AD00FE0012421436C
:1005600007E0022304E0032302E0052300E0062362
:1005700019430020FFF72AFF012000E0002010BDF2
:10058000DC050000B80B000070B504AC267805ACA3
:100590002578441EA041C401002901D040210C430C
:1005A000002A01D020221443002B01D010231C4329
:1005B000002E01D008231C43002D01D004231C432E
:1005C0000220FFF7EDFE0125011C294021430220F6
:1005D000FFF7FCFE281C70BD10B5041C0420FFF7BB
:1005E000DFFE03231840084B9C4204D0074B9C427B
:1005F00008D1B02100E0982101430420FFF7E6FE76
:10060000012000E0002010BD10100000701000005C
:1006100008B50120FFF7C4FECF23011C19400120BB
:10062000FFF7D4FE012008BD07B5FFF7E0FEFFF796
:10063000EFFF0948FFF7E8FEFA20C000FFF766FF6A
:10064000002300930193181C191C1A1CFFF79CFF30
:100650000248FFF7C1FF07BD08110000101000009D
:1006600008B50348FFF72EFDFFF7DEFF08BDC046C3
:10067000A086010010B5C3699C07FCD4036802245E
:10068000A3430360C46901231C42FBD104682343D4
:1006900003600368DC07FCD4C46901231C42FBD15E
:1006A000C469DC401C42F7D1084B1A430260C3699D
:1006B0005A07FCD4C0239B0243608181C3699C0715
:1006C000FCD4036802221343036010BD0400004001
:1006D000037EDA07FCD5018570470000027E012306
:1006E0005107FBD5428B1A4207D1428BDA401A429E
:1006F00003D1428B92081A4202D0034B01221A7096
:10070000008DC0B27047C0467E00002070B50368FF
:10071000041C988B1A1C0821FF32084226D0802026
:1007200099839872112353704021144B9171507129
:100730005E68134DC0202E40800506435E605E69F2
:100740003540284358610F4818600F4818615D68AC
:100750000E4828408025AD02284358605868800B19
:100760008003586000235171237105E0137ADA0683
:1007700002D5201C00F0E4FA207970BD9C01002015
:10078000FFFFFF8F9C0000201C010020FF3F00F0B6
:10079000002303714371044B016083600B780222D4
:1007A00013430B707047C0460D07000038B5364B39
:1007B0002021DA6901200A43DA61344B06241A78D1
:1007C00002431A70324B0F2219789143197019782D
:1007D000214319702F490C782043087019780A407A
:1007E0001A701A7860210A431A702B4B2B4A5A80D0
:1007F0005A7852B2002AFBDB294B01211A780A43AE
:100800001A709A78D107FCD426480268510B1F222F
:100810001140914200D1052111408C011D8D2249CA
:100820002940214319850468A10C0A401F2A00D1E0
:100830001D221C8D1F210A408C4322431A85026809
:100840000721D20D0A408A4200D103220A40188DA6
:100850001103164A02400A431A8519787F220A407A
:100860001A701A78042112480A431A7058621A89B9
:100870000C218A431A811A8901218A431A81002195
:10088000802201F0A0F938BD000400405844004126
:100890003C44004159440041000C00400640000027
:1008A00000500041246080003FF8FFFFFF8FFFFFF2
:1008B0009C010020F7B5141C1F4A5F0101971D1C05
:1008C000D319061C5869271C4000400F0330103311
:1008D000C74006D00F1C8022596812060A435A608E
:1008E00009E02F1C7B1E9F41144BBF01FF18381CD1
:1008F000221C01F05FF901990F4808354218176171
:10090000131C5269A104920B890C92030A435A6189
:1009100059690B4A0A405A616B01F3180222DA71D5
:100920005979802252420A435A716B01F318DB79DC
:100930009A07FAD5201CFEBD9C0100201C01002056
:10094000FF3F00F0F8B51A4E051C3378141C002B3D
:1009500012D1184B184A1A645A6C920B92035A64BB
:10096000586C164A02405A64A2235B00EA5C40209D
:100970000243EA54012333704827FF37EA5D01231D
:10098000134012D00B4B5A6C9204920CA24202D22A
:100990005C6CA404A40C081C221C074901F00AF991
:1009A0000123EB550023337000E01C1C201CF8BD14
:1009B0007F0000209C010020DC000020FF3F00F0B1
:1009C000FF3083792022002900D110221343837144
:1009D00070470000084BFF305A69920B92035A612E
:1009E00002230372827980235B4213438371037A6B
:1009F0009A07FCD57047C0469C01002080235B42CB
:100A00001943C9B28172704770B5A02303225B00FD
:100A1000C254134B134A5C6CC021144089050C432B
:100A200046255C64FF35402444550F4D30261D6437
:100A300090256D0046555D6B1540294392255963FD
:100A40006D0080214155094D1D63B0256D00445551
:100A50005C6F22405A67B2235B00C15470BDC04630
:100A60009C010020FFFFFF8FDC0000205C010020C4
:100A7000024B5B785BB2002BFADB7047000C004046
:100A8000024BDB68DA06FBD57047C0460008004021
:100A9000F8B52A4B1E22596891430222114359602E
:100AA000274B28491E1C9982998A0A439A82F36827
:100AB0000227234C3B42FAD0234D0123AB60FFF7C2
:100AC000D7FF224B6B60FFF7D3FF8223DB016B80E4
:100AD000FFF7CEFFA38C80229343A384FFF7D0FFC0
:100AE0001B4BE362FFF7CCFFA38C1A4A1343A3848A
:100AF000FFF7C6FFA38C1F43A784F3681A06FCD533
:100B00000F4BDB685A06F8D50024FFF7B9FFAC603D
:100B1000FFF7AEFF104B6B60FFF7AAFF0F4B104AB9
:100B2000C0215A600F4A0906106A0002000A0143F8
:100B3000116207229C601A60F8BDC0460040004167
:100B4000000800400C060000000C004001050100F8
:100B5000B805FF7D040A00000007030010E000E074
:100B6000E703000000ED00E00EBEFEE70DBEFEE76D
:100B700005BEFEE702BEFEE70E4A0F4838B58242C8
:100B800004D10E4A0E4B93420ED10AE00D4C944212
:100B9000F7D00023D1188842F3D9E55804330D600B
:100BA000F8E700F011F804E09342FAD2002102C302
:100BB000FAE7FEE7000000205C000020AC03002004
:100BC0005C000020D41E000038B5344D2B68013382
:100BD0001AD0334B2A1D1A60EAB2002A14D1314BC5
:100BE000197801231940304B0AD118682F4A9042D6
:100BF00001D1196008E01A602D4A013A002AFCD19F
:100C00001A602C4B01221A70FFF742FF62B6FFF701
:100C100027FD284B284C1B78002B0AD02B6883F328
:100C200008881E4BFF229343A3601D4B1B681B6863
:100C3000184700F09DFD00F04FF8204B8022520332
:100C40009A601F4B1F4A051C5A60216AC022090284
:100C5000090A12060A43226200229A6007221A60D9
:100C6000AB68281C9847184B002801D001221A7045
:100C70001A78002A05D0002000F08CFA00F004FB5E
:100C8000FCE71B78002BEBD100F0E6FD0028E7D055
:100C9000012000F07FFA00F0F7FAFCE700200000E6
:100CA0001C02002038040040FC7F002035817307BF
:100CB00048E801008000002000ED00E00044004111
:100CC00010E000E0E70300008100002008B5FFF716
:100CD00033FB00F0C3FA08BD10B5054B054C23608B
:100CE000FFF764FD201C2168FFF752FD201C10BD9A
:100CF000005000412002002070B5051CC0B0081C47
:100D0000161C0C1C00F067FF40006A4603230230EB
:100D10005370107076080123E218013A11785A00D6
:100D2000002906D1281C69460023FFF7C3FD40B007
:100D300070BDB342F6DA684681520133ECE7000039
:100D4000F7B5BA4A04681378B949271CFF37051C60
:100D5000102038720B705378B648B74E03709378F2
:100D60003380D178338809020B4333801179B34B38
:100D70001980517918880902084318809079B04980
:100D80000880D2790888120202430A8040227A71D0
:100D9000A84F3A78A64F120238780F1C0243A94890
:100DA0008446181C624500D1C2E020DC8021490045
:100DB0008A4200D16EE109DC812A00D192E0822AC8
:100DC00000D195E0802A00D064E18BE081235B00B4
:100DD0009A4200D1CFE000DA58E1C0239B009A424A
:100DE00000D157E1984B9A4200D14FE152E1902354
:100DF0001B019A4269D015DCD023DB009A4222D035
:100E000088231B019A4269D0A023DB009A4200D0BC
:100E100040E1201CFFF7DEFD3188286889B2FFF72A
:100E2000EDFD3BE1894B9A4200D12FE100DC31E13D
:100E3000874B9A4200D11DE1864B9A4200D029E1AE
:100E400033886B7122E133881B0A012B08D10B8890
:100E500012222868934201D80A8892B27E4911E191
:100E600033881B0A022B08D10B884322286893423F
:100E700001D80A8892B2794904E133881B0A032B0E
:100E800000D007E13388DBB2012B17D0002B07D04D
:100E9000022B00D0FEE00A882868D2B2704911E027
:100EA000042201A86F4900F085FE3B8804222868CF
:100EB000934201D83A8892B201A9E3E00A882868EF
:100EC0006949D2B2FFF718FFE8E03388201C2B7184
:100ED000FFF780FD201CFFF797FDDFE0291C01C90B
:100EE0000122CFE0614900230B8028680222CAE07A
:100EF0005E4900220A801888502210405C4A107017
:100F00001E880F20304018801888032800D9C1E0BF
:100F100012781B8808335B01E418A379002A01D0FA
:100F20009B0600E0DB06DB0F0B8028680222A9E0AD
:100F300019887F2291434E4AC9B2117018880F2137
:100F4000014019803188002900D0A3E019880029C8
:100F500000D19FE01988032900D99BE012781B88F3
:100F600008335B01E318002A02D020225A718DE079
:100F7000102159718AE002887F239A433C4BD2B2F8
:100F80001A7001880F220A4002803288002A00D09D
:100F900080E00288002A00D17CE00288032A00D980
:100FA00078E01B78002B1FD0038808335B01E3181F
:100FB0009B799A066AD50388202208335B01E318DF
:100FC0001A71038808335B01E318DB795F065DD58E
:100FD0000388402208335B01E318DA710388022298
:100FE00008335B01E3181EE0038808335B01E31854
:100FF0009B79D9064AD50388102208335B01E31890
:101000001A71038808335B01E318DB799A063DD532
:101010000388202208335B01E318DA710388012278
:1010200008335B01E3181A7130E0C0469C000020D1
:1010300083000020880000208A0000208C0000200F
:1010400086000020020300000103000021200000B0
:10105000A121000021220000241C00000400002027
:101060000C1C0000FC1B0000001C00008400002081
:10107000820000200B8808222868934201D80A8841
:1010800092B207490023FFF715FC07E0201CFFF789
:10109000A1FC03E0201C0121FFF792FCF7BDC04634
:1010A0004800002007B5054B0122019001A91868EE
:1010B000131CFFF7FFFB01200EBDC04620020020DD
:1010C00013B5054B6C4607341868211C0122FFF745
:1010D00039FC207816BDC0462002002010B5074C10
:1010E000201CFFF713FB031C0020834205D022685D
:1010F0004823FF33D05C0123184010BD200200209C
:1011000010B5054A0C1C031C191C10680123221C75
:10111000FFF7D0FB201C10BD2002002070B5084C4A
:10112000061C201C0D1CFFF7F1FA0023984205D085
:101130002068311C2A1CFFF705FC031C181C70BD1D
:1011400020020020F8B50C4C051C201C0E1CFFF7DB
:10115000DDFA0023271C341C98420AD0002C07D04B
:10116000291C221C3868FFF7EDFB241A2D18F5E71F
:10117000331C181CF8BDC0462002002008B5031C13
:10118000081C111C9847024B64221A8008BDC046F7
:1011900092000020012805D1054B064A1A60064B33
:1011A000187004E0002802D1044A014B1A6070470D
:1011B00090020020581C000098000020A41C000091
:1011C00030B50A1C1C4985B00978031C00292AD0B7
:1011D000042A01D1006804E0022A01D1008800E05D
:1011E0000078520004A98B180B3B9C1AA3420BD029
:1011F0000F210140092902D83025294300E0373169
:1012000019700009013BF1E701A930230B70782325
:101210004B700A208B1898700D20D870074B043241
:101220001B68D86803E005490968C868191CFFF7FE
:10123000A5FF05B030BDC0468E0000209002002002
:1012400072B6EFF30883044A1360036883F30888D7
:10125000436818477047C04694020020084B1A881C
:10126000002A03D01A88013A92B21A80054B1A88D4
:10127000002A03D01A88013A92B21A807047C046F9
:101280009200002090000020F0B591B008A9CC4A4F
:101290000B1C31CA31C351CA51C360CA60C3C94BA8
:1012A000C9489A687A255203520F92005258C7498A
:1012B00002609C68A4B262430C60C54900240A60C5
:1012C000C44A1460C44C2570C44CC54D2368281C06
:1012D0001B6940219847002802D0C24B64221A8023
:1012E000C14B00221860C14B1D60C14BC04DBE4FA9
:1012F0001A602A683B689A42E6D2BC4B1B681A788F
:10130000FF2A00D114E2232A00D0EBE1B94E337852
:10131000002B06D0B14BB8491B680222D868FFF7F2
:101320002DFFAD4B1B78532B3CD13B682A68934271
:101330001ED9AE4801322A609A1AB04B01681B6868
:1013400001310160AE4E9A4201D2326000E033605A
:10135000A04832680068049000F02CFC33682968CB
:101360005A182A60A14A1668F1181160A54A13702C
:101370002B68013B2B609D4B1A68013A1A60A14B08
:101380009E4A1B7811688B420AD222689148C91A7A
:10139000006892699047002802D0924B64221A801C
:1013A000C0468DE1522B0AD18A48944A23680068CE
:1013B00011685B69039098476422934B0DE04F2BB3
:1013C00005D1844B8D4A1B6812681A7078E1482B4E
:1013D00005D1804B894A1B6812681A8070E1572B2F
:1013E00005D17C4B854A1B6812681A6068E16F2B37
:1013F00003D1784B0121186807E0682B08D1754BA1
:101400007E481B6802211B880360FFF7D9FE57E165
:10141000772B06D16F4B79481B6804211B6803604A
:10142000F3E7472B13D1754B1868FFF709FF774B8C
:101430001B6883F3088862B6754B1B78002B00D1BC
:101440003EE1664B06201B681B68984738E1542B29
:1014500004D101233370614B1B6864E04E2B0CD127
:101460003378002B06D15D4B63491B680222D86894
:10147000FFF784FE0023337022E1562B57D12368F7
:101480006449D8680122FFF779FE23686249D86869
:101490000322FFF773FE614D2368291CD8680122DF
:1014A000FFF76CFE23685E49D8680D22FFF766FEE1
:1014B0002368291CD8680122FFF760FE4B4F4C4D72
:1014C0005849002339602B603A1C281C13685E1CA5
:1014D00016601B780593002B03D00368013303606B
:1014E000F4E73E4E2A683368D868FFF747FE336852
:1014F0004A49D8680122FFF741FE059929604A4907
:1015000039603A4A1368581C10601B78002B04D0CD
:10151000374B1A6801321A60F3E733682A68D868D3
:10152000FFF72CFE3368D86833490222C6E0334AFD
:10153000582B17D1244E264D366813682A68B100FF
:1015400093420AD21F4D5808E861384828801D4D43
:10155000287DC607FBD55B18F2E7204B34491B6892
:10156000D868AAE0592B79D112681A4B3149002A60
:1015700002D11B680B606CE0124D086819686B683B
:10158000104E8025AB4392087360002A61D02A4B2D
:101590000C4D2B800B4E337DDD07FBD500230A4D10
:1015A0002D680195AD08AB4203D3244D054E35801F
:1015B00046E09342F9D09D00465901334E51EEE783
:1015C000381C00000040004148020020400200207A
:1015D0003C0200208C0200203802002090020020F3
:1015E0004C02002090000020300200203402002035
:1015F000440200208E000020981C00009802002069
:101600009C0200202C020020920000209402002066
:1016100098000020741C00009D1C0000761C000037
:10162000C01C0000781C0000841C000002A5FFFF05
:101630008D1C00009400002044A5FFFF04A5FFFFBF
:101640003F4E357DEE07FBD59D0049194019D21A52
:101650009BE73C4B3C491B68D8682EE05A2B2FD1A6
:101660003A4B17681D680026EF19BD4206D028784E
:10167000311C00F013F90135061CF6E7314B3449F3
:101680001B680122D868FFF779FD07230F2232403B
:10169000111C36093031092A00DD07311820C01825
:1016A0006A468154013BF1D2236806A9D868082212
:1016B000FFF764FD23682749D8680322FFF75EFD22
:1016C000254B7A221A70254B00221A60244B1B7876
:1016D00093422DD01B4B23491B680122D868FFF78A
:1016E0004DFD25E0111C3039C8B21C4B092804D827
:1016F0001D682A01114319601AE0111C413905299E
:1017000003D81E68373A310106E0111C61390529FA
:1017100004D81868573A01010A4308E02C2A03D17B
:101720000A4A1968116001E00B490A7000221A6028
:101730000D4B1A6801321A600C4B1A680132D5E55C
:101740000040004190020020911C00008C0200200B
:10175000951C0000971C0000380200209802002011
:101760008E0000209B1C0000440200203402002058
:1017700010B51C4B01201A78032402431A701A4B2F
:101780000F2219789143197019782143197017495C
:101790000C782043087019780A401A701A783021A2
:1017A0000A431A70124B80211A6A0A431A62114BBB
:1017B000114A5A805A7852B2002AFBDBC4220F48E1
:1017C0000F499203FEF756FF0E4A002313700E4A8C
:1017D00013700E4A13700E4A13700E4A13700E4A9D
:1017E000137010BDD6440041BB440041D7440041B2
:1017F00000040040000C004019400000001C0042A2
:101800002AF60000A002002027030020A1020020E9
:10181000A4020020280300202503002008B5C1B23F
:101820000248FEF755FF012008BDC046001C0042DB
:10183000024B187E4007C00F7047C046001C004294
:1018400008B5FFF7F5FF0028FBD00248FEF746FF7A
:1018500008BDC046001C004208B5FFF7E9FF0023A1
:10186000984205D0FFF7ECFF031C233B5A4253413B
:10187000181C08BD70B5041C0D1C4618B44204D0D9
:101880002078FFF7CBFF0134F8E7281C70BD10B5B6
:10189000041CFFF7D5FF2070012010BD0B0A584033
:1018A000034B4000C05A0902484080B27047C0460E
:1018B000CE1C0000F7B50024051C0F1C261CBC42E2
:1018C00020D0FFF7BDFF114BC0B21B780190002B59
:1018D0001AD1311CFFF7E2FF0D4B061C1A88002AB3
:1018E00004D10C4A11782A1C002907D001996A1CDE
:1018F0002970802F02D11988013919800134A4B2CE
:10190000151CDCE7301C00E00120FEBD2503002093
:10191000A202002026030020F0B53E4E85B0002232
:1019200003900C1C32703C4B914201D1012201E02A
:101930003A490C801A707F231C4201D080349C43AA
:10194000FFF77EFF3378C0B2002B07D0002535703B
:10195000FFF776FF3378C0B2AB4236D1432803D0CD
:10196000712853D01528EBD1012300930120FFF7F4
:1019700055FF0098FFF752FF00998025C843C0B279
:10198000FFF74CFF039B00270293244A1388002B88
:101990001DD1214901930978002918D10198FFF739
:1019A0003DFF391C0198FFF779FF013D071C002D11
:1019B000EBD1000AC0B2FFF731FFF8B2FFF72EFFFC
:1019C000FFF73EFF3378002B0AD035701FE00299F5
:1019D000013B09781380029B019101330293DDE7FB
:1019E000C0B2062807D1009B03990133DBB28031D6
:1019F0000093803C0391002CB8D10420FFF70EFF28
:101A0000FFF71EFF044B01251C7000E00025281C79
:101A100005B0F0BD2503002026030020A20200200F
:101A2000F0B5384C87B0002301902370994201D162
:101A3000012301E0344A1180344A642613704320A4
:101A4000FFF7ECFE324FFFF7F3FE002803D1002F23
:101A500003D0013FF7E7002F03D1013E002EEED166
:101A60004DE00125FFF7ECFE2378002B38D1C0B202
:101A70000290012805D004283DD10620FFF7CEFEB4
:101A800039E005AE0221301CFFF714FF01988021D8
:101A9000FFF710FF23780390002B18D1FFF7D0FE3B
:101AA0000702FFF7CDFEBFB223783F18BFB2012B6C
:101AB0000DD0039B9F4207D13378AB4204D1EB4357
:101AC0007278DBB29A4204D01820FFF7A7FE0023F9
:101AD00003E00620FFF7A2FE029B2278002A02D034
:101AE000002626700BE0012B05D1019A6B1C803279
:101AF000DDB20192B6E7054A002313700126301CBF
:101B000007B0F0BD25030020A2020020260300201C
:101B100000350C00002934D00123002210B4884283
:101B20002CD301242407A14204D2814202D209010C
:101B30001B01F8E7E400A14204D2814202D249002D
:101B40005B00F8E7884201D3401A1A434C08A042D0
:101B500002D3001B5C0822438C08A04202D3001B66
:101B60009C082243CC08A04202D3001BDC0822437D
:101B7000002803D01B0901D00909E3E7101C10BCA1
:101B80007047002801D00020C04307B4024802A1DA
:101B90004018029003BDC046190000000029F0D093
:101BA00003B5FFF7B9FF0EBC4243891A1847C04678
:101BB0007047C04610B50023934203D0CC5CC45498
:101BC0000133F9E710BD031C8218934202D019704B
:101BD0000133FAE770470023C25C0133002AFBD1CE
:101BE000581E7047F8B5C046F8BC08BC9E46704702
:101BF000F8B5C046F8BC08BC9E467047040309040B
:101C000041726475696E6F204C4C4300417264757B
:101C1000696E6F204D4B5220576946692031303133
:101C20003000000012010002020000404123540075
:101C30000002010200010000080000001000000086
:101C400020000000400000008000000000010000B3
:101C500000020000000400001D18000041180000F0
:101C600031180000751800008F18000019190000C5
:101C7000211A00007600200041707220313120329C
:101C80003031390031333A30393A353600580A0D9F
:101C900000590A0D005A00230A0D003E00322E3072
:101CA00000000000A5100000C1100000DD100000C1
:101CB000011100001D11000001110000451100007C
:101CC0005B41726475696E6F3A58595A5D00000045
:101CD0002110422063308440A550C660E77008811F
:101CE00029914AA16BB18CC1ADD1CEE1EFF1311296
:101CF000100273325222B5529442F772D66239936F
:101D000018837BB35AA3BDD39CC3FFF3DEE36224E5
:101D1000433420040114E664C774A44485546AA5BE
:101D20004BB528850995EEE5CFF5ACC58DD5533675
:101D3000722611163006D776F6669556B4465BB70E
:101D40007AA719973887DFF7FEE79DD7BCC7C44845
:101D5000E5588668A7784008611802282338CCC95E
:101D6000EDD98EE9AFF9488969990AA92BB9F55AD5
:101D7000D44AB77A966A711A500A333A122AFDDBAE
:101D8000DCCBBFFB9EEB799B588B3BBB1AABA66CA5
:101D9000877CE44CC55C222C033C600C411CAEEDFE
:101DA0008FFDECCDCDDD2AAD0BBD688D499D977EB5
:101DB000B66ED55EF44E133E322E511E700E9FFF4E
:101DC000BEEFDDDFFCCF1BBF3AAF599F788F889104
:101DD000A981CAB1EBA10CD12DC14EF16FE18010E8
:101DE000A100C230E3200450254046706760B983EB
:101DF0009893FBA3DAB33DC31CD37FE35EF3B10238
:101E00009012F322D2323542145277625672EAB5FA
:101E1000CBA5A89589856EF54FE52CD50DC5E23487
:101E2000C324A01481046674476424540544DBA7CA
:101E3000FAB79987B8975FE77EF71DC73CD7D326D7
:101E4000F2369106B01657667676154634564CD95A
:101E50006DC90EF92FE9C899E9898AB9ABA9445827
:101E6000654806782768C018E1088238A3287DCB2A
:101E70005CDB3FEB1EFBF98BD89BBBAB9ABB754A77
:101E8000545A376A167AF10AD01AB32A923A2EFDBA
:101E90000FED6CDD4DCDAABD8BADE89DC98D267CC7
:101EA000076C645C454CA23C832CE01CC10C1FEF0A
:101EB0003EFF5DCF7CDF9BAFBABFD98FF89F176E17
:101EC000367E554E745E932EB23ED10EF01E00004B
:101ED000000000000114000009024300020100801C
:101EE0003209040000010202000005240010010470
:101EF00024020005240600010524010001070583D2
:101F0000030800FF09040100020A00000007058120
:101F100002400000070502024000000000C201006C
:101F200000000800690000004100000000000000FF
:10200000008000207D230000652300006523000080
:1020100000000000000000000000000000000000C0
:102020000000000000000000000000006523000028
:10203000000000000000000065230000D123000024
:102040006523000065230000652300006523000070
:10205000652300006523000065230000692300005C
:102060006523000065230000652300006523000050
:1020700065230000B5220000A522000065230000B2
:102080006523000065230000652300006523000030
:1020900000000000652300006523000065230000A8
:1020A0006523000065230000652300006523000010
:1020B0000000000010B5064C2378002B07D1054B1B
:1020C000002B02D0044800E000BF0123237010BDA4
:1020D000100300200000000048C70200044B10B5A8
:1020E000002B03D00349044800E000BF10BDC046E8
:1020F000000000001403002048C7020010B50400CF
:1021000002F026FB23682000DB689847200010BD02
:102110001FB596210F4C8901200001F053F82000D3
:1021200001F052F80028FAD010230B492000636315
:1021300002F00AFB094901A802F05CFB01A920009A
:1021400002F0FBFA2000FFF7D9FF01A802F008FB1C
:102150001FBDC0463003002078860200848602003E
:102160007047000010B50A4C200002F08FFB094AAE
:102170000949200002F083FB084C0949200000F0C7
:10218000E1FF084B2360084B23610A23636310BD02
:102190002C03002000000020A5490000300300208F
:1021A0006C050020308602006886020070B50121AF
:1021B000202000F04BFB0021202000F093FB0A20A0
:1021C00000F04AF90021202000F040FB642000F0DC
:1021D00043F9202000F0CCFA962305009B002F4CF9
:1021E000984222DD2E49200000F0FCFD200000F086
:1021F000E6FC03210B2000F0A1FB03210C2000F0E2
:102200009DFB00226B21200000F00EFD012120002B
:1022100000F04CFD1B21200000F048FD20000321B0
:1022200000F0ECFC200000F0DFFC1D49200000F075
:10223000D9FD200000F0C3FC03210B2000F07EFB41
:1022400003210C2000F07AFB00226B21200000F01B
:10225000EBFC0721200000F029FD96232B219B0099
:102260009D4200DD2039200000F020FD03212000E8
:1022700000F0C4FC200000F0B7FC01211E2000F09B
:10228000E5FA01211E2000F02DFB01211F2000F0A6
:10229000DDFA01211F2000F025FB70BDF8040020AD
:1022A000A086010010B5024802F0ECF810BDC0464F
:1022B0006803002010B5024802F0E4F810BDC046E3
:1022C0002C0400207FB51949194800F0E5FB194995
:1022D000194800F0E1FB1949194800F0DDFB1949E4
:1022E000194800F0D9FB194C1949200000F0D4FB23
:1022F000184E1949300000F0CFFB012503233100AF
:10230000019500930D220B33144802F047F81D236A
:102310000393013B02931A3B0193009518331B2250
:1023200021000F4802F002F87FBDC04600080042BD
:10233000F0040020000C0042F404002000100042D1
:10234000F804002000140042FC04002000050020D6
:102350000018004204050020001C00426803002011
:102360002C040020FEE70000034B10B51B68002B77
:1023700000D0984710BDC0460805002070B50F4931
:102380000F4CA14204D100F08FF802F047FAFEE7AB
:102390000C4D00238D42F6D0CA18E818A24205D38E
:1023A000094B8242EFD00949002204E0006804335F
:1023B0001060F1E704C38B42FCD3E4E70000002087
:1023C0001003002054C702001003002080210020C9
:1023D00010B500F066F8002801D100F057F810BDE4
:1023E000014B18607047C04608050020014B186873
:1023F0007047C0460C050020F7B5134801228446FB
:102400001249134C8E68636805689B0E1340019255
:1024100088686268019F920E3A4067463F6893421F
:102420000ED1BD420CD186420AD35B19FA25486809
:10243000AD00861B07486B437043000DC018FEBDFE
:102440003D0013000600E3E70C05002010E000E06B
:1024500000ED00E05555000070B5041E10D0FFF7E8
:10246000CBFF050000F01CF8FFF7C6FF054B401B33
:102470009842F7D9FA23013C9B00ED18002CF3D1C8
:1024800070BDC046E70300007047000010B5034A66
:1024900013680133136000F0C3FA10BD0C0500206F
:1024A00070470020704700001E2270B5464847491B
:1024B000436893431C3A1343436008238C692343C6
:1024C0008B61434C434B9C829C8A14439C82DC6806
:1024D0001442FCD00124404A14701578254203D0E0
:1024E00055786DB2002DF8DB01249460547864B205
:1024F000002CFBDB394C5460547864B2002CFBDBBD
:102500008224E4015480547864B2002CFBDB022462
:102510009C840E34DD682542FCD0314CDC621024F2
:10252000DD682542FCD09D8C2E4C2C439C841024CD
:10253000DD682542FCD002249D8C80262C439C849F
:102540004024DD683542FCD0DD682542F9D01024F6
:10255000DD682542FCD000249460547864B2002CDD
:10256000FBDB214C5460547864B2002CFBDB1C6A0A
:102570001E4D2C4080251C621C6AAC431C62032348
:1025800093601B4B536053785BB2002BFBDB002343
:10259000FF240B72174A4B728B72CB72164B1A6068
:1025A000164B174A1B6811689A065B01C90E234037
:1025B000520F12020B431343124A138580234268C1
:1025C0001343436070BDC04600400041000400401A
:1025D0000C06000000080040000C0040010501004E
:1025E000B905FF7D040A000000070300FFFCFFFFA0
:1025F00003060100006CDC0204000020246080005F
:102600002060800000400042FA21314B10B518686C
:1026100089001BF003FC2F4B0138984256D82E49F5
:102620002E4A4860C020136A00061B021B0A03439F
:102630001362002407238C600B608021136A090653
:102640001B021B0A0B431362FC22254B196A0A4327
:102650001A62FC22196A92010A431A62A022196ABC
:10266000D2020A431A62E0B20021013400F0EEF80F
:102670000F2CF8D11B4B1C005A7852B2002AFBDBFE
:10268000194A5A80194B1A00597EC9090129FBD0F1
:10269000E421C90099803F21D970537EDB09012BC9
:1026A000FBD0C02300205B011361907000F02EF876
:1026B00063785BB2002BFBDB0D4B0E4A6380D37952
:1026C000DB09012BFBD04123537010BDFEE7C04650
:1026D00004000020FFFFFF0010E000E000ED00E03C
:1026E00000040040000C00401E400000004000427A
:1026F0002140000000480042914202D002D98A1ACB
:10270000D0407047521A9040FBE70000164A00B5CF
:102710001300517EC9090129FBD00138042816D8BD
:102720001969124A0A400F211A615A788A431BF02C
:1027300061FB0308060B0300110001220A435A70D3
:1027400000BD11000322F9E711000222F6E7F02391
:1027500011691B050B430F21136153788B4319003B
:1027600002230B435370EBE700400042FFFFFFF0F2
:1027700010B504000E2801D80F34E4B20121200066
:1027800000F0DCF81823102163432B4CE418615649
:10279000002901D014290DD1284B1800DA79D2096B
:1027A000012AFBD002241A78A2431A70C379DB09EC
:1027B000012BFBD022480300427ED209012AFBD024
:1027C0001F2402692140A2430A4302615A7ED209B2
:1027D000012AFBD0022219780A431A705A7ED209C4
:1027E000012AFBD00222197B0A431A731A7ED207F0
:1027F000FCD501221A765A7ED209012AFBD0022288
:10280000197B0A431A731A7ED207FCD5588B80B203
:102810005A7ED209012AFBD002211A788A431A7003
:102820005A7ED209012AFBD0064B1A68064B19685A
:10283000FFF762FF10BDC0468C86020000480042D0
:10284000004000420C00002008000020182330B592
:102850001D00040045430820204A55192856013020
:1028600014D0032912D808006343D156D3181BF0A3
:10287000C1FA02280E1B5868CB010221184A9B1886
:102880001A1840321170012282405A6030BD5868D7
:10289000CB010621124A9B181A18403211700122EE
:1028A00082405A609A61F1E75868CB0106210C4AD0
:1028B0009B181A1840321170012282405A605A61E6
:1028C000E4E75868CB010221054A9B181A184032E8
:1028D0001170012282409A60D8E7C0468C860200BF
:1028E000004400411823F0B508245843114A131836
:1028F0001C5701341BD0012635005F688356BD404C
:102900000D4ADB019A18906805420BD10C00601E3D
:102910008441D2194032107834400336A400B043C9
:1029200020431070044A9B18002901D15D61F0BD5D
:102930009D61FCE78C86020000440041182242435E
:10294000F8B52C4E0300B218127A52B214000132BC
:102950000ED0481C00240C280AD81BF04BFA072084
:10296000202020202020200B0B0B0B000124644290
:102970002000F8BD092905D10021D8B2FFF766FF74
:102980000024F5E70A2902D1D8B20839F6E7002475
:102990000B29EDD1D8B20A39FFF758FFE8E7182024
:1029A0004343F2185568F3562C00134ADB016E08B6
:1029B00017389B18C9B204409E19002C0DD00F2463
:1029C00030363278090122401143C9B25B193170A7
:1029D00040331A7810431870D2E732000F27303294
:1029E00016785B19BE433143117040331A78104397
:1029F0001870BDE78C8602000044004110B5040049
:102A0000FFF742FD014B1C6010BDC04610000020C6
:102A10000122024B52421A607047C046100000204B
:102A2000164A10B51368591C26D0013B1360002BC1
:102A300022D172B6124B134A0433934213D9124A6D
:102A400001211000147D0C42FCD02021148BFF3199
:102A50009B085B0021431183D3610C4B138001233E
:102A6000027D1A42FCD0BFF34F8F094B094ADA604E
:102A7000BFF34F8FC046FDE710BDC04610000020D9
:102A800000200000030200000040004102A5FFFFFB
:102A900000ED00E00400FA05016070479446F0B5CF
:102AA0009E1E721E96416246056892072F68360682
:102AB0003A4332432A60072505AC24780068A40114
:102AC0002940214342680024022B00D05C031143BB
:102AD00021434160F0BD30B5C0250368AD031C68DB
:102AE00012052A402243C0240904A40221401143B4
:102AF000196003685A6814435C6030BD01230268A2
:102B000011680B43136003681A68D207FCD4DA69B2
:102B1000D207F9D470470223026811680B4313608F
:102B20000268D3699B07FCD470470268137E9B0739
:102B3000FCD57047002203685A8370470368187EEB
:102B40004007C00F70470368187EC0097047802394
:102B500002685B42117E0B43137670470368588B03
:102B60008007C00F704702230268518B0B435383C9
:102B700070470368187EC007C00F70470368188D40
:102B8000C0B2704703681A7ED207FCD589B2012013
:102B900019857047012203689A75704701220368FE
:102BA0001A7570470123026811680B4313600368AC
:102BB0001A68D207FCD4DA69D207F9D47047022325
:102BC000026811680B4313600368DA699207FCD44A
:102BD00030215A8B8A43110010220A435A8302681B
:102BE000D3695B07FCD470470221026813688B43EA
:102BF00013600268D3699B07FCD47047032230B589
:102C0000036811401C68074D5A6809042A40E4060D
:102C10001143640F5960052C03D10268D3695B0727
:102C2000FCD430BDFFFFFCFF70B5056804006B8B62
:102C30009B069B0F022B0DD06B8B00209B069B0FDE
:102C4000032B32D06B8B9B0704D56B8B9B069B0FA2
:102C5000012B2AD16B6A49001143DB0AC9B2DB029E
:102C60000B436B622368002A13D11A7ED207FCD56E
:102C70005B8B9B069B0F022B04D04908002220008F
:102C8000FFF7D2FF2368588B4007C30F012058403D
:102C90000BE0187E8007C00FF4D11A7ED207F8D55A
:102CA000C022596892020A435A6070BD03682833F3
:102CB00019700368187EC007C00F03D15A8BD20762
:102CC000F8D57047588B4007C30F01205840F8E7EC
:102CD0000368214A30B593422FD0204A93422FD027
:102CE0001F4A93422FD01F4A93422FD01E4A93422D
:102CF0002FD01E4A93421FD10E23192201210325F2
:102D000099401B48C024016099082B40AB40FC351A
:102D10009D4089000918A4000859A843C0259D407A
:102D20002B0003430B518023DB011A43114B5A80C4
:102D30005A7852B2002AFBDB30BD09231422DDE7AA
:102D40000A231522DAE70B231622D7E70C231722D2
:102D5000D4E70D231822D1E700080042000C0042FE
:102D6000001000420014004200180042001C004203
:102D700000E100E0000C0040F8B504000F00160070
:102D80001D00FFF7A5FF2000FFF7B8FE1C21BB00C8
:102D90000B4071072268090C0B43136084232268DF
:102DA0009375012F1AD11021012E00D008390C4B38
:102DB00069431868C0001BF031F8072221680240FF
:102DC0008B895203DB04DB0C13438B8122680304E1
:102DD0009089DB0C400B400318439081F8BDC0463E
:102DE00004000020F8B504000F00FFF771FF200079
:102DF000FFF7D8FE1422236879001A600C4B25686F
:102E00001E6830001BF00AF80A49040030001BF06D
:102E100005F87D23FA215843C9001AF0FFFFFF236C
:102E2000241AE868053C1C4098430443EC60F8BD54
:102E30000400002040420F000020704770B50F26AC
:102E4000CB1D013902003240D5B22C0000093034CC
:102E5000092A00DD07341C70013B8B42F2D170BDA2
:102E600010B50C000B4B1868FFF7E8FF21000A4B68
:102E700008311868FFF7E2FF2100084B103118688D
:102E8000FFF7DCFF2100064B18311868FFF7D6FF6B
:102E9000202010BD0CA0800040A0800044A0800035
:102EA00048A0800008B4024B9C46103808BC60471C
:102EB000612E00003F20704713B56B460268D97140
:102EC0000733546819000122A04716BD70B50A26C1
:102ED0000B7892B06E44023305000B703C22002147
:102EE00030001DF09BFF394801AC06903848242182
:102EF0000790062020776846364AA1742281364A18
:102F0000364BA281FD3AFF3A8018C17768462339D3
:102F10000630C17768460730C17702A8C17707201D
:102F2000F277032608316944C87703A9CE771021C8
:102F30002B366E443170092621851F3169440E708D
:102F40000CA9053E0E7033212380022369440B70C7
:102F500006360DA90E7022493536A1863B216E44F6
:102F6000307010A86274E27702703D3269446A449E
:102F70000B70137040210022E37023716371A373FF
:102F800041336B44218719705A702B7DC039A3706F
:102F9000A37263770133DBB2A3776A7D0B200D0048
:102FA00068441543C5773120684403703A23501CA8
:102FB0006B441870412302320A436B441A7021009B
:102FC0004222084800F0A4FD12B070BD1001042494
:102FD000020605240904000001020000080B00009D
:102FE000070500006C05002008B4024B9C46103811
:102FF00008BC6047CD2E000070B5027D0B790C0037
:1030000000259A420BD10B784E78A12B09D1212EA5
:1030100005D107221B491C4800F07AFD0135280024
:1030200070BD212BFBD1202E22D107221549164835
:1030300000F0B0FC9622134BD200196891421DD1CA
:10304000DB79DB071AD4FA20FFF7D8FC00210E4801
:1030500000F066FE0125232EE1D1E378A2781B0261
:1030600013430A4A00210848136000F059FED6E7CE
:10307000222EEFD18A78034BDA71DBE7FFF7C8FC29
:10308000E4E7C046180000206C0500201400002072
:1030900008B4024B9C46103808BC6047F92F00006A
:1030A00010B5417D006A013100F0ACFB034B1B6899
:1030B00001335A1E9341181810BDC046200000204D
:1030C00010B5417D006A023100F0B2FB10BD10B5B1
:1030D000417D006A023100F079FB10BD70B50D0032
:1030E000417D0400130002312A00006A00F066FCF2
:1030F000002801D10123636070BD000010B5054CAC
:1031000023685A1C04D103685B6998470300206058
:10311000180010BD20000020074A0300106810B5F9
:10312000411C03D001235B42136010BD597D186A16
:10313000013100F0F3FBF8E7200000200020704789
:1031400070470000FA239B0010B583600F4B0022EC
:10315000C3820300283383610D4B04004260C261C7
:103160001800403323610830631D21622060DA7744
:103170008323A362813BE3628033236301F0A2FADD
:103180002100103101F06FFA200010BD0302000091
:10319000EC890200022110B5094B1A68437D5B01DE
:1031A000D318FF339C7A21439972437D0133DBB2FC
:1031B0005B01D3180122FF33997A0A439A7210BD3A
:1031C000240A00207047000010B5FFF70FF9F42320
:1031D000FF330024984207D9044B0A20DC79631E90
:1031E0009C41E4B2FFF738F9200010BD1800002020
:1031F00010B502490248FFF7A5FF10BD6C0500207D
:1032000010050020704710B5040001F02FFB2000CE
:1032100010BD0000F0B5822919D1C3B2294D5A0161
:10322000AA189169284C80010C40C02189052143CE
:1032300091612649083340187021506128685B016C
:103240001A5C8A43110030220A431A54F0BD002947
:10325000FCD1C026C1B21B4C4B01E3189A681A4D31
:10326000B6052A4032439A60194A800182185A6092
:103270000A000727246808325201115DB9430F0084
:103280000121394311559F6910493D4040182E4393
:103290009E6158617020115D814308001021014337
:1032A000115599680B48A218084080214903014331
:1032B00099609968890B89039960402311790B43C0
:1032C0001371C3E7240A0020FFFFFF8F9805002039
:1032D00058070020FF3F00F0EFF310830360012345
:1032E000436072B670470368002B02D162B6BFF329
:1032F0006F8F704773B5836D0400002B1BD10600E0
:10330000A83635786846FFF7E7FF019BEDB2013B31
:1033100002D33578EDB2FAE768460193FFF7E3FF91
:10332000002D01D1002076BD2300A4331868A034FD
:103330002368C01AF7E76846FFF7CEFF2200002592
:10334000019BF432013B02D31578EDB2FAE76846EF
:103350000193FFF7C8FF002DE4D02300F033186875
:10336000EC34E5E710B5436D4468DBB25A01A218AE
:10337000916809480833084080214903014391605E
:1033800091685B01890B890391602268D318402200
:1033900019790A431A7110BDFF3F00F0F7B5436D6C
:1033A0004268DBB219000400083110684901411875
:1033B000C979C90711D55B01D21893689B049B0C8E
:1033C0000CD12000FFF7CEFF63681A68636DDBB293
:1033D00008335B01D3187F22DA71F7BDE16D002954
:1033E00023D12100A4310B6023000125AC33E56516
:1033F00068465360FFF770FF260020002100019B04
:10340000A836013BF430F5315A1C33D035700278C0
:103410005F1ED2B20A700A78002A04D120000193FC
:10342000FFF7A0FFE8E73B00EEE72100F0310B607B
:103430000023E3652300603353606846FFF74CFFC9
:103440000125260020002100019BF436013BA83015
:10345000F5315A1C0ED0357002785F1ED2B20A7058
:103460000A78002A04D120000193FFF77BFFE8E7E8
:103470003B00EEE768460193FFF735FFA4E737B559
:103480006B46DC1D00230D00237001F01BF92100A9
:1034900001F0A6F82B681818286020783EBD0000BF
:1034A0002023F7B5474A0500D1690F200B43D361AC
:1034B000012245490B7813430B70444B1978814323
:1034C000197006211C782143197041490C78224358
:1034D0000A701A7802401A70602219780A431A702A
:1034E0003C4B3D4A5A805F78FF09FCD13B48FEF7D0
:1034F00077FF01233A4C3B4E2268300011780B4392
:1035000013708022390052001DF088FC22689378E5
:10351000DB07FCD456621F26334B1B68590B980CF3
:103520009B01314030405B0FB14200D105211F2883
:1035300000D10238072B00D1043B31408901178D9F
:1035400001912A4930400F40019939431185118D6D
:103550000700B143080038431085118D1803244B30
:103560007F260B4003430C2013850823D178814329
:103570000B430321D3702268D3788B4301390B436B
:10358000D3702268137833401370042322681678AE
:10359000334313702268C1241389A4008343154860
:1035A000138103591B021B0A035180230360137804
:1035B00011481943012311702B700021FFF702FEFF
:1035C000F7BDC04600040040584400413C4400415F
:1035D00059440041000C004006400000313F00000B
:1035E000240A0020280A0020246080003FF8FFFF02
:1035F000FF8FFFFF00E100E01005002000780028A9
:1036000010D00121084B1B681A898A431A810822AD
:10361000198B0A431A830422198B0A431A83002246
:10362000024B1A607047C046240A00201C0A002082
:1036300010B50F4A93699B0B9B0393611368022299
:10364000FF331A729879823A02439A711A7A920772
:10365000FCD57F24074A2140937A0800A343190030
:10366000802301439172917A5B420B43937210BDA8
:10367000240A00200050004110B50C0001F022F88F
:10368000210000F0E0FF002804D1034A93699B0B5E
:103690009B03936110BDC046240A0020F8B50D00BD
:1036A000832A19D1CBB23B4C5A01A21891693A48EE
:1036B000AD010840C0218905014391613749206867
:1036C0006D187021083355615B011A5C8A43110043
:1036D00040220A431A54F8BD022A55D1304A8B00C1
:1036E0009858002802D003685B699847F82001F0D9
:1036F000B5F80400274E2B4B4660036040220021A2
:1037000008301DF08BFB22000023A032A364656506
:10371000E3642365A365E3655360D36413721360A8
:1037200013654C3213725372FF222B001340590160
:1037300071188868184F08330740C0208005384347
:103740008860306807265B01195CAD00B1430E004C
:103750000321314319542300616D60681140490110
:10376000411860334B60616D63680A401B68520109
:103770009B180122FF33997A20000A439A72FFF7BF
:10378000F1FD074B5C51A6E711002800FFF742FD51
:10379000A1E7C046240A0020FFFFFF8F9805002004
:1037A00070050020448A020070B505000124064B14
:1037B000A200D258002A06D0210028000134FFF7C9
:1037C0006DFF0A2CF3D170BD440500200B4BCAB22B
:1037D0000B488901C9185301C31859619969083206
:1037E000890B89039961036852019A180223D371E6
:1037F0005179823B0B4353717047C04698050020B6
:10380000240A0020084B8A00D05810B5002803D0A5
:1038100003689B68984710BDC9B2044B4901591809
:1038200088688004800CF6E770050020240A0020D8
:1038300010B50C00FFF7E6FF00280CD0064BE4B2F1
:103840001B68083464011C19802362795B421343AE
:1038500063710223E37110BD240A0020F0B51C003F
:103860002A4B85B01B6807000D000292002B4AD03E
:10387000274B8A00D058002808D0036822005B68D4
:10388000029998470400200005B0F0BD3800FFF70A
:10389000B9FF844204D929003800FFF7B3FF0400C0
:1038A0000121EBB21B4E03935B010193F218936865
:1038B0009B0B9B039360019A336802989B18FF331C
:1038C0005A7A0A435A72144BA901C91822001DF0F2
:1038D00089FA002CD7D029003800FFF793FF002881
:1038E000D1D14021039B326808335B01D31818798A
:1038F000014319710121D971019BD318FF339A7AC1
:103900000A439A72BFE701246442BCE71C0A002004
:1039100070050020240A00205807002013B56B46CC
:10392000DC1D22000123FFF799FF012801D1207837
:1039300016BD01204042FBE770B5CBB2124A1348D6
:103940005C0189018918021951609168104D083392
:103950000D40802149032943402591609168890BDE
:103960008903916001685A018A18167935431571E7
:1039700095796D06FCD55B01C918CB79DB07FCD5C1
:1039800000198068C0B270BD58070020240A0020CA
:10399000FF3F00F070B50D0000211400FFF7CCFFD1
:1039A000A04200D9200000230349A34203D0CA5CEF
:1039B000EA540133F9E770BD58070020F0B51E0046
:1039C0003A4B85B01B680F000192002B35D0802345
:1039D000DB019E4231D80025354B8A01D318029372
:1039E000002E2CD0334B1B680393FF233B401C005D
:1039F00000930834039B64011C19A379DB0921D0CF
:103A00002D4B2E4918681AF009FA2D4B17215843EF
:103A10001AF004FA2B4BE279920713D4DA5D002AEC
:103A200001D10138F7D20122DA55009B5A01214B0E
:103A30009B189A69920B92039A6101256D422800A6
:103A400005B0F0BD00221F4B3400DA553F2E09D9D6
:103A5000009B40245A01174B9B188022996912063B
:103A60000A439A612200019902981DF0BBF9009B5C
:103A7000A1045A010F4B890C9B18029A2D195A6107
:103A80009A69361B920B92030A439A61009B039A30
:103A900008335B01D3180222DA715979823A0A435A
:103AA0005A71019B1B1901939AE7C0461C0A00201A
:103AB00098050020240A00200400002040420F0046
:103AC000701101008D05002070B50D001C000D4B1C
:103AD000AE01F6181100300022001DF083F9EDB29E
:103AE00009496D014D196E61AB69084A2000134008
:103AF000AB61AB69A2049B0B920C9B031343AB61BC
:103B000070BDC04698050020240A0020FF3F00F049
:103B1000F7B5104B01901B780F001500002B0CD14E
:103B20000D4B16001C78002C09D00C4E0C48348824
:103B3000201864191DF056F934802800FEBD002EAF
:103B4000FBD03A19330000210198FFF7BDFF24187C
:103B5000361AF4E718090020190A00201A0A002072
:103B600019090020F8B50F0016000024012A26D9F3
:103B700010001DF0C3F8050038001EF0B7FD032348
:103B800002220130400028706B7096420DD93978BE
:103B900000290AD0531CDBB20137A9549E4203D03E
:103BA0000232EC54D2B2F0E7320029000548FFF7A8
:103BB000AFFF441EA041C4B228001DF0A9F82000A8
:103BC000F8BDC0466C050020F0B50024012685B084
:103BD000184B0F0069461E7005000094FFF74FFC5C
:103BE000154B01A90B806A3BFF3BCB715A330B721B
:103BF000009B8C7109334B800E4B4E7108711C7009
:103C00003A00092F0FD00D4F09223E700C4E2800AC
:103C100000943480FFF77CFF69462800FFF72FFCF3
:103C2000328808493C702800FFF772FF012005B078
:103C3000F0BDC0461809002009020000190A002042
:103C40001A0A00201909002070B5CE7892B005003C
:103C50000C00022E0BD18B79C9792C48090219432B
:103C6000FFF7B2FF411E8841C0B212B070BD00F034
:103C700029FD210000F0C8FC002803D0C117081A54
:103C8000C00FF2E7012E0ED1E279A37912021A4396
:103C90001F49112A13D8D2B2002A10D02800FFF7EA
:103CA00037FF0120E1E7032EDFD1A378002B08D1F5
:103CB000E279A37912021A431649032AEBD90A784A
:103CC000ECE7022B08D1E279A379120212491A43D8
:103CD0002800FFF747FFC8E7012B05D1E279A37958
:103CE00012021A430D49F3E7032BBED14122010012
:103CF00001A81DF093F800F0E5FC01A900F094FC88
:103D0000E279A37912021A4301A9E1E76C050020C8
:103D1000868A0200768A0200608A02007A8A02009D
:103D2000CBB204495B01C9188B699B0B9B038B6168
:103D30007047C046240A002037B5050048780C00BB
:103D40000B2810D81AF056F8061B0F2B0F404561B0
:103D5000494C5A5D097801AA002906D10223118035
:103D60002800FFF7B1FE01203EBD00231380284B41
:103D70001B78012B00D1137002230021F0E78A7811
:103D80000023012A03D101AA1380224BF0E7204A25
:103D90001370214A93699B0B9B039361E3E78C7833
:103DA000012C06D100211B4B01AA1C7011702300AD
:103DB000D6E70120002CD7D1154B174A187093690C
:103DC0009B0B9B039361CFE789782800FFF730FCBA
:103DD000C9E72800FFF738FFC6E701230F4ACCE701
:103DE0000B780020DB06BFD12800FFF7DDFCA278AE
:103DF0000A4B0B481A60FFF7CDF9CAE70123094ABD
:103E0000BBE78A78074B1A60C3E70020ACE7C046DF
:103E10008C05002094050020240A00201C0A0020A4
:103E200010050020200A00203A4BF7B51E78050047
:103E3000002E5FD1384C23689A8B12070DD50822CB
:103E400031009A833000FFF7E5F910222368FF3331
:103E5000997A0A439A72314B1E6023689A8B5207F3
:103E600001D504229A83FF331A7A920603D52022C1
:103E7000597A0A435A721A7AD20623D5694608003B
:103E8000274AC0CAC0C0A268920B9203A260402217
:103E9000587902435A7160230A7828001A422AD1BD
:103EA000FFF74AFF2368FF33002827D08022997943
:103EB00052420A439A711A7A520603D54022597A1D
:103EC0000A435A727F2601252368FF331E722F0092
:103ED000236808377F01DB19DB79002B07D0114BF2
:103EE000AA00D05800280DD003681B6898470135F8
:103EF000082DECD1F7BDFFF7BFFBD3E720210A4A1D
:103F00009171D8E729000948FFF71AF92368DF19EA
:103F1000FE71ECE7190A0020240A00201C0A002088
:103F20005807002070050020FF50004110050020B8
:103F300010B50248FFF778FF10BDC0466C050020A1
:103F400080235B00038000234360073303727047C4
:103F500083000148C018704744050020836C402B43
:103F600009D03F22036CC154036C01331340036436
:103F7000836C013383647047F7B505006846FFF72B
:103F8000ABF900264022019B013B02D32E6D961B0C
:103F9000FAE768460193FFF7A6F9AB6D6846002B78
:103FA0004FD1FFF799F92900019BA831013B5A1C19
:103FB0000CD00C785A1EE4B2002C05D1684601934F
:103FC000FFF791F92000FEBD1300F0E7684601936A
:103FD0000024FFF788F92A002900A0321368A431D1
:103FE000B4420ED0086898420BD92800591CEB182F
:103FF0001160603319780830C9B2FFF7AFFF0134A0
:10400000E9E709689942DDD1002313600133AB650C
:104010006846FFF761F92F002A000021019BA837AD
:10402000013BF532581CC9D0397010785E1E00284B
:1040300005D0117028000193FFF794F9EBE73300E6
:10404000F0E7FFF749F92900019BF431013B5A1CC5
:1040500006D00C785A1EE4B2002CAFD01300F6E75D
:10406000684601930024FFF73EF92A002900EC324C
:104070001368F031B44202D0086898421DD809682C
:1040800099429FD1002368461360AB65FFF724F97E
:104090002F002A000021019BF437013BF532581C08
:1040A00000D18BE7397010785E1E002811D0117096
:1040B00028000193FFF756F9EAE72800591CEB188E
:1040C0001160AC3319780830C9B2FFF747FF0134EB
:1040D000CBE73300E3E710B50400FFF74DFF206D99
:1040E00010BD10B50400FFF747FF236D002B03D070
:1040F000E36CE418207A10BD01204042FBE7F7B5DD
:1041000017000E000400FFF737FF6846FFF7E4F8DA
:104110003F2200259446019B013B5A1C19D0BD4209
:1041200015D2226D002A12D00121226D4942002AA7
:104130000AD06046E26CA218117AE26C01320240A9
:10414000E264226D013A226571550135E7E7013BD2
:10415000E3E768460193FFF7C6F82800FEBD0000BC
:10416000014B024A1A607047240A002000500041A7
:104170000120704710B50368014A1B6A984710BDBB
:1041800013040000C06D7047A83003684020C01AB7
:104190007047C36D002B03D0836DC018007D70473E
:1041A00001204042FBE710B504000069FEF7A6FCC1
:1041B000002322006365A032A365E365A834136081
:1041C0005360236010BD020010B5A8321368002BA5
:1041D000FCD10069FEF7A9FC10BDF0200140303988
:1041E000484248417047F0231B01194080230620B4
:1041F0009B0099420AD00133FF330130994205D028
:10420000802302385B00994200D0002070470F20C5
:1042100001400020012903D00239481E8141481C79
:10422000704700000300F0B5182685B00391AC3349
:1042300004001878330008214343334D1700EB186E
:104240005956FEF77BFB2300AD3318783300082165
:104250004343EB185956FEF771FB2300AF331B782D
:10426000022B0AD12300C0331878FF2805D008217B
:104270004643AE197156FEF761FB2600B036307822
:10428000FF2819D00121FEF7E1FA18222100337826
:104290001E485A43AB56B431DB01181808601C495C
:1042A000AD185B1821000122B8310B6069688A40A3
:1042B0002100BC310A601A600122039B11002069B1
:1042C000FEF75AFD39002000FFF78DFF3900050089
:1042D0002000FFF79CFF390006002000FFF77DFF5C
:1042E00033000090290020690122FEF7D7FB23004C
:1042F000AE331A7859782069FEF7EDFB2069FEF796
:104300000AFC05B0F0BDC0468C860200184400418E
:104310001444004110B54022002104001CF07EFD31
:104320000023200023646364A36410BDF0B585B04E
:104330001D000AAB1B78040000930BAB1B78160022
:1043400001930CAB1B780F0002930DAB1B7803930A
:1043500000234360FA239B0083600F4B0833036004
:104360001430FFF7D7FF20006030FFF7D3FF6A4615
:1043700023001278AC3327619A706A4612792000C4
:10438000DA706A46127A1E701A716A46127B5D7084
:104390001A7505B0F0BDC046988A0200F7B51D0039
:1043A00008AB1B780400009309AB1B78160001933F
:1043B00000234360FA239B0083600E4B0F000833F9
:1043C00003601430FFF7A6FF20006030FFF7A2FF64
:1043D0006A4623001278AC3327619A706A461279D4
:1043E0001E70DA7022005D70FF23B032200013705F
:1043F0001374FEBD988A020037B5EFF31083009363
:104400000123019372B63F24019B013B5A1C0FD03C
:10441000826C5D1E402A09D0026C8154026C01320C
:1044200022400264826C01328264EEE72B00EDE7E9
:1044300068460193FEF757FF37BD13B5EFF31083BE
:1044400000930123019372B6019B5A1E0192002B27
:1044500014D0836C002B0ED03F22436CC45C436CA1
:10446000013313404364836C013B83646846FEF769
:104470003AFF200016BD01246442F7E76846FEF7C4
:1044800032FFF6E710B504000069FEF767FB00286D
:1044900005D02069FEF772FB2069FEF764FB2069F6
:1044A000FEF74CFB002818D02069FEF767FB0100DF
:1044B00020001430FFF7A0FF2300B0331B78FF2B40
:1044C0000BD04023E26D9B1A092B06DC230022004F
:1044D000B433BC321B6812681A602069FEF749FBCE
:1044E00000280CD02300A8331B68002B13D0200019
:1044F0006030FFF7A2FFC1B22069FEF743FB2069DD
:10450000FEF721FB002805D02069FEF720FB20697B
:10451000FEF710FB10BD2069FEF740FBEFE700003F
:10452000F8B5040000690D002600FEF722FBA8364E
:10453000002802D03368002B31D00F273368402B7E
:1045400023D1EFF31083012213420FD1164B5B6886
:10455000DB05DB0DF2D0103B5BB2002B0FDA3B40EA
:10456000083B9B08114A9B009B181B682069FEF7BB
:1045700000FB0028E2D02000FFF784FFDEE79B0865
:10458000C0330B4A9B009B58F0E7200029006030A5
:10459000FFF732FF2069FEF7FDFA0120F8BD290080
:1045A0002069FEF7EFFAF8E700ED00E01CED00E00F
:1045B00000E100E010B504001430FFF73EFF2300D7
:1045C000B0331B78FF2B0AD04023E26D9B1A0A2BD5
:1045D00005DD2300BC34B8331B6822681A6010BDA7
:1045E00070B50E0000254468002C0BD02368310004
:1045F0005B6820009847002802DB2D18E468F3E789
:1046000001256D42280070BD70B50D004468002C76
:1046100008D0236829009B6820009847002802D111
:10462000E468F4E7200070BD70B50D004468002C0C
:1046300007D0236829002000DB689847E4682D181C
:10464000F5E72C7070BD70B50D004468002C08D0E3
:10465000236829001B6820009847002802D1E468DD
:10466000F4E7200070BDF8B542788B790D00017A2F
:104670009B18040000208B4222DC6368834219D11E
:104680006560002623786A71EA792B719B18237084
:10469000AB79B34213D9AB68B7006078DF19FFF785
:1046A00057FC3B68013603606378F6B201336370F0
:1046B000EEE70B00D9680029FBD1DD60E1E70120BE
:1046C000F8BD000070B50126054D064C2B6833423D
:1046D00003D12000FFF734FC2E60200070BDC046DF
:1046E000280B00202C0B0020F7B506000D000C0055
:1046F0008B180193019B671B9C4207D0336821787C
:104700001B683000984701340028F3D13800FEBD03
:1047100070B5040008000D001DF0E8FF23680200DA
:1047200029005B682000984770BD10B50B1E02D0B1
:10473000FFF7EEFF0300180010BD10B503688A688C
:104740005B680968984710BD10B5FFF7EEFF10BD14
:1047500010B50249FFF7DCFF10BDC046CC8A02004D
:1047600010B504000068002801D01CF0D1FA200028
:1047700010BD10B504000068002801D01CF0C8FA74
:1047800000232360A360636010BD70B504000D00BA
:10479000006801311DF094F8031E01D0012028C4E7
:1047A00070BD036810B50400002B04D043688B4231
:1047B00001D3012010BD2000FFF7E7FF0028F9D04A
:1047C000A368002BF5D122681370F2E770B50E00D4
:1047D000110004001500FFF7E4FF002804D12000B9
:1047E000FFF7C7FF200070BDA560310020681DF0F5
:1047F0001FFAF7E7002370B504000D000360436063
:104800008360994207D008001DF070FF2900020064
:104810002000FFF7DBFF200070BD000010B5FDF7A2
:10482000F3FE1CF0FBF8FDF7C1FC0120FDF714FEC0
:10483000084C2000FEF734FE2000FEF7DFFEFDF7F7
:1048400067FCFDF78DFC044B002BFAD000E000BFA5
:10485000F7E7C0466C0500200000000010B51CF012
:104860004DFA10BD10B51CF049FA10BD10B51CF082
:104870004FFA10BD10B51CF04BFA10BDFEE70B004F
:1048800010B5010018001BF005FD10BDF7B5344D43
:1048900001902B685A1C2A60002B5FD10122314CF9
:1048A000314B324F1A7023683800996806F0D4FDF6
:1048B00023682F4E5968300006F0CEFD23682D483E
:1048C000D96806F0C9FD39002B4806F059FE2B4F78
:1048D0003100380007F07EFB294E2649300006F0F3
:1048E0004FFE2449274806F04BFE234B3269BB6735
:1048F00080239B01134333611F4B234F736723684E
:104900003800996806F0B8FD2368204E59683000D9
:1049100006F0B2FD23681E4CD968200006F0ACFDFD
:1049200039001C4806F088FE1B4F3100380007F0A4
:104930009FFB1A4E2100300006F07EFE2100184831
:1049400006F07AFE134B3269BB6780239B01134349
:104950003361104B73672B6801332B600198FEBDE8
:10496000C00B0020A400002024000020DC1A00203E
:104970008C1A0020B41A0020241D00207C1B00206B
:104980000C1C0020981C0020541B0020041B00203D
:104990002C1B0020641F0020B01D0020441E00209E
:1049A000D41E00200D4A10B513680400591E116072
:1049B000022B11D10A4806F01BFE0A4806F018FE29
:1049C000094806F015FE094806F06EFE084806F094
:1049D0006BFE084806F068FE200010BDC00B0020EA
:1049E000241D00200C1C0020981C0020641F0020A7
:1049F000441E0020D41E002010B50400024B0360AA
:104A000007F0E4FB200010BDD88A020010B50400B6
:104A1000024B036007F0DAFB200010BDE88A0200B9
:104A200010B50400FFF7E8FF2000FFF71FFF20008C
:104A300010BD10B50400FFF7E9FF2000FFF716FFD7
:104A4000200010BD836F10B5002B07D041610369B2
:104A500042691A4205D0034807F073FB012319434A
:104A6000F4E710BDF08A020010B543691943FFF75F
:104A7000E9FF10BD10B5040007F066FB074B2200EC
:104A8000236000237432236713705370221DA367C1
:104A9000E367043293672000D36710BDD88A020011
:104AA00070B5040008000D0008F0ECFC002802D0EE
:104AB000280008F009FAE067280008F001FD261D2B
:104AC000002802D0280008F0DDFAF067280008F07E
:104AD00015FD0834002802D0280008F0F3FAE0673A
:104AE00070BD70B504000D000EF032FD21002000F5
:104AF0006C31FFF7D5FF220000237432137053701E
:104B000023672361A5676B425D41656170BD00004D
:104B1000C36F10B5002B07D04161036942691A4287
:104B200005D0034807F00DFB01231943F4E710BD3E
:104B3000F08A020010B543691943FFF7E9FF10BD81
:104B400010B5040007F000FB084B2200236000238F
:104B50007832236763671370221DE367043293671B
:104B6000D36780322000136010BDC046E88A02007F
:104B700070B5040008000D0001F01CF9261D002886
:104B800002D0280001F036F8F0672800260001F076
:104B90002FF90836002802D0280001F06BF8F067E2
:104BA000280001F043F98834002802D0280001F0E1
:104BB00081F8206070BD70B504000D000EF0C8FCD7
:104BC000210020006C31FFF7D3FF22000023783250
:104BD0006367137023672361E5676B425D4165611D
:104BE00070BD7047704701225242D3170260436084
:104BF00000238360C360704782B00092019301225A
:104C00005242D3170260436000238360C36002B046
:104C100070470020704700207047012040427047D5
:104C2000036810B55B6A04009847431C03D0A3686F
:104C300018780133A36010BD012040427047012065
:104C4000404270477047704701225242D3170260BA
:104C5000436000238360C360704782B00092019379
:104C600001225242D3170260436000238360C36075
:104C700002B070470020704700207047012040427A
:104C80007047036810B55B6A04009847431C02D064
:104C9000A36801CBA36010BD0120404270470120F2
:104CA0004042704710B50400034B03601C300EF007
:104CB00092FD200010BDC046688B020010B50400B4
:104CC000034B03601C300EF086FD200010BDC04673
:104CD000A88B020010B50400FFF7E4FF2000FFF7E7
:104CE000C5FD200010BD10B50400FFF7E7FF200050
:104CF000FFF7BCFD200010BDF7B506000D00002435
:104D00000192019B9C421EDA7069B3691B1A10D094
:104D1000019A171B9F4200DD1F003A0029001CF07A
:104D200061F87369E419ED19DF19019B7761A342FA
:104D3000E7DD336829785B6B30009847431C02D06D
:104D400001340135DDE72000FEBDF7B507000E0098
:104D500000250192019B9D4222DABC697869844258
:104D600014D0241A5B1BA4109C4200DD1C00002CF4
:104D700003D0220031001FF045FF7B692D19A400EC
:104D800036191C19019B7C61AB42E3DD3B6831683D
:104D90005B6B38009847431C02D001350436D9E7D5
:104DA0002800FEBDF7B506000D0000240192019B0E
:104DB0009C421EDAB168F3685B1A10D0019A171B87
:104DC0009F4200DD1F003A0028001CF00BF8B3687A
:104DD000E419ED19DF19019BB760A342E7DD3368E1
:104DE00030009B6A9847431C03D02870013401357A
:104DF000DDE72000FEBDF7B507000E00002501929B
:104E0000019B9D4222DAFC68B9688C4214D0641A76
:104E10005B1BA4109C4200DD1C00002C03D0220070
:104E200030001FF0EFFEBB682D19A40036191C19C5
:104E3000019BBC60AB42E3DD3B6838009B6A98474E
:104E4000431C03D0306001350436D9E72800FEBD8D
:104E500010B503689B69984710BD8268C16810B59A
:104E600003008A4203D2107801329A6010BD0268B2
:104E7000926A9047FAE78368C26810B5934201D2FC
:104E8000187810BD03685B6A9847FAE710B50368A5
:104E90001B6B984710BD0000074B10B50360002343
:104EA000040043608360C3600361436183611C301D
:104EB0000DF0E4FF200010BD688B020010B5036800
:104EC0009B69984710BD8368C16810B502008B428A
:104ED00002D201CB936010BD03689B6A9847FAE742
:104EE0008368C26810B5934201D2186810BD036888
:104EF0005B6A9847FAE710B503681B6B984710BDCB
:104F0000074B10B503600023040043608360C36057
:104F10000361436183611C300DF0B0FF200010BDC0
:104F2000A88B020083685869704783689869704746
:104F30008368586B704737B58368FF259B6B1A00F1
:104F4000180A28402A40040222431000190C294064
:104F500009041B0E1B06084318433EBD37B5836882
:104F6000FF25DB6B1A00180A28402A40040222435E
:104F70001000190C294009041B0E1B060843184396
:104F80003EBD836858697047836898697047836835
:104F9000586B704737B58368FF259B6B1A00180A5A
:104FA00028402A40040222431000190C2940090419
:104FB0001B0E1B06084318433EBD37B58368FF250B
:104FC000DB6B1A00180A28402A4004022243100012
:104FD000190C294009041B0E1B06084318433EBD4B
:104FE0008368586A70478368986A704700207047E2
:104FF00000207047704710B500201924914203D259
:10500000E04108C9C018F9E710BD0000104B10B509
:10501000036003006C331B780400002B13D08068FE
:10502000002801D0FFF726FCE069002801D0FFF737
:1050300021FC606A002801D0FFF71CFCE06A002810
:1050400001D0FFF717FC20000EF04AFB200010BD36
:10505000F08E0200104B10B5036003006C331B7818
:105060000400002B13D08068002801D0FFF702FC59
:10507000E069002801D0FFF7FDFB606A002801D03D
:10508000FFF7F8FBE06A002801D0FFF7F3FB2000F0
:105090000EF026FB200010BD008F020010B50400AA
:1050A000024B03600EF01CFB200010BD848E02003A
:1050B00010B50400024B03600EF012FB200010BD7F
:1050C0009C8E02000E4B10B5036092235B00C35C04
:1050D0000400002B0ED08068002801D0FFF7CAFB27
:1050E0006069002801D0FFF7C5FBE069002801D006
:1050F000FFF7C0FB20000EF0F3FA200010BDC04601
:10510000108F020010B50400024B03600EF0E8FAA5
:10511000200010BD488D020010B50400024B036052
:105120000EF0DEFA200010BD848D020010B50400E0
:10513000024B03600EF0D4FA200010BDB48D0200C3
:1051400010B50400024B03600EF0CAFA200010BD37
:10515000B48E020010B50400024B03600EF0C0FADA
:10516000200010BDC88E020010B50400FFF74EFFEE
:105170002000FFF77BFB200010BD10B50400FFF7F7
:1051800069FF2000FFF772FB200010BD10B504007E
:10519000FFF784FF2000FFF769FB200010BD10B56A
:1051A0000400FFF785FF2000FFF760FB200010BD23
:1051B00010B50400FFF786FF2000FFF757FB200023
:1051C00010BD10B50400FFF79DFF2000FFF74EFB58
:1051D000200010BD10B50400FFF79EFF2000FFF770
:1051E00045FB200010BD10B50400FFF79FFF200015
:1051F000FFF73CFB200010BD10B50400FFF7A0FF37
:105200002000FFF733FB200010BD10B50400FFF7AE
:10521000A1FF2000FFF72AFB200010BD13B50400FA
:105220008B6801AA996805F0A9FF200016BD13B587
:1052300004008B6801AA996805F0A0FF200016BD44
:1052400013B504008B6801AA996805F097FF200048
:1052500016BD13B504008B6801AAD96906F09CFD40
:10526000200016BD13B504008B6801AA596A06F028
:1052700093FD200016BD13B504008B6801AAD96AFE
:1052800006F08AFD200016BD13B504008B6801AA44
:10529000D96906F081FD200016BD13B504008B68A6
:1052A00001AA596A06F078FD200016BD13B5040066
:1052B0008B6801AAD96A06F06FFD200016BD13B5F0
:1052C00004008B6801AA596906F066FD200016BD2E
:1052D00013B504008B6801AAD96906F05DFD2000B2
:1052E00016BD000010B50400044B036008300EF03A
:1052F000F3FE20000EF0F4F9200010BD3C8E0200F9
:1053000010B50400FFF7EEFF2000FFF7AFFA200012
:1053100010BD000010B50400044B036008300EF00F
:10532000DBFE20000EF0DCF9200010BDC88C02006E
:1053300010B50400FFF7EEFF2000FFF797FA2000FA
:1053400010BD00000E4B70B50360056904000EF03F
:10535000F1F9854204D0002D02D02800FFF78AFA27
:10536000A068002802D003685B68984720000C30D2
:105370000EF0B2FE20000EF0B3F9200070BDC04662
:10538000C48D020010B50400FFF7DCFF2000FFF71A
:105390006DFA200010BDF0B51C0087B0019005AB80
:1053A00004A806F00FFD03AB21000C9A05A806F037
:1053B00009FD049E059D33000C3B1B689B00F31800
:1053C00000932B000C3B1C68A4002F192A0031000D
:1053D00001980DF059FF041E10D130001FF088FA1B
:1053E0008000361828001FF083FA009B80002D18DB
:1053F000B3420CD17D1B6C1EA5416C4205A806F082
:105400005FFA04A806F05CFA200007B0F0BDAF42D6
:1054100002D004360435D9E70124EFE7F0B51700D0
:105420001C002A4B85B00360009102AB22000600ED
:10543000390003A806F0C6FC039DE41B2B000C3BBF
:105440001B6864109B00EB180193214BA0009C4249
:1054500001D901204042FFF705FA070023002A0086
:10546000390000980DF01AFF844212D8441C38000D
:10547000FFF700FA0120164B40429C4200D8A000E2
:10548000FFF7F0F92300070001002A0000980DF053
:1054900005FF02003900300006F09CFB28001FF0D9
:1054A00027FA019B80002D18AB4205D00021300067
:1054B000043506F01AFCD1E73800FFF7DBF903A842
:1054C00006F0FEF9300005B0F0BDC046B40B002078
:1054D000FEFFFF1F0A2807D82F2915D93030814237
:1054E00012D2303908007047080030380928FAD93C
:1054F0000B00613B052B01D85739F3E70B00413B0B
:10550000052B01D83739EDE701204042EBE70000D9
:1055100008B4FFB504200091002101921BF078FB34
:10552000174F060039001CF075FB0024A0420FD075
:1055300030001DF0DBF8451C2800FFF793F931001F
:105540002A0004001BF04EFC390004201BF060FB15
:105550000AAB099A0199009803931EF0ABFB050072
:10556000002C06D0210004201BF052FB2000FFF786
:1055700081F9280004B0F0BC08BC01B01847C0464F
:10558000368F020010B50B001400002904D00A0069
:1055900021681FF02BFB0300180010BD10B5002A76
:1055A00001D01FF02FFB10BD0B0010B51100002B18
:1055B00002D01A001FF030FB10BD00004B1E9941B5
:1055C0000A4B0200036000236C3241608360C360B9
:1055D000037443618361C361036243628362C36294
:1055E000036343638363C36313707047F08E0200E9
:1055F0004B1E99410A4B0200036000236C3241604C
:105600008360C360037443618361C3610362436267
:105610008362C362036343638363C363137070472E
:10562000008F0200531E9A4110B542600022040010
:10563000034B8160036011000DF082FD200010BD5E
:10564000088E020010B503689B68984710BD10B51E
:105650000368DB68984710BD10B504000B681B6930
:105660009847200010BD10B504000B685B6998478F
:10567000200010BD10B504000B689B6998472000FE
:1056800010BD10B504000B68DB699847200010BD01
:1056900010B503681B6A984710BD036813B55B6AB1
:1056A0009847FF240300010A020C2140234009020D
:1056B000224012040B43000E13430006184316BD8C
:1056C000036813B59B6A9847FF240300010A020C84
:1056D000214023400902224012040B43000E1343D1
:1056E0000006184316BD0000531E9A4110B54260D3
:1056F00000220400034B8160036011000DF0C4FC24
:10570000200010BDD48D020010B503689B68984737
:1057100010BD10B50368DB68984710BD10B50400D4
:105720000B681B699847200010BD10B504000B687A
:105730005B699847200010BD10B504000B689B6999
:105740009847200010BD10B504000B68DB6998472E
:10575000200010BD10B503681B6A984710BD036890
:1057600013B55B6A9847FF240300010A020C21402D
:1057700023400902224012040B43000E134300068B
:10578000184316BD036813B59B6A9847FF240300AE
:10579000010A020C214023400902224012040B435B
:1057A000000E13430006184316BDF0B58BB004007D
:1057B0000993180012AB089216001A78159D0292F0
:1057C0006A460595149D0B680495139D07930395F0
:1057D00010AD88CD88C2079B32009D680300200071
:1057E000A84720000BB0F0BDF0B58BB004000993C2
:1057F000180012AB089216001A78159D02926A469C
:105800000595149D0B680495139D0793039510ADA2
:1058100088CD88C2079B3200DD6803002000A847BE
:1058200020000BB0F0BDF0B504001700180089B0DF
:1058300007930EAB129D139E06921A780495059657
:10584000109D0B6802950F9D009201959D683A008E
:1058500003002000A847200009B0F0BD70B5040087
:105860001600180086B00D9D05930AAB04921A78B5
:1058700003950C9D0B6802950B9D00920195DD68C8
:10588000320003002000A847200006B070BD0000D1
:105890004B1E9941084B9222036000235200416045
:1058A0008360C360037443618361C36103624362C5
:1058B000836283547047C046108F0200531E9A4182
:1058C00010B50400044B42600360816000210DF0BC
:1058D0005FFD200010BDC046248D020010B5036896
:1058E0009B68984710BD10B50368DB68984710BDEA
:1058F00010B504000B681B699847200010BD10B557
:1059000004000B685B699847200010BD10B50400C7
:105910000B689B699847200010BD0000531E9A41F8
:10592000074B10B542600360816004000DF002FF78
:105930000021206120000EF0C3F9200010BDC046F8
:10594000C48D020083689A680A60DB684B60704708
:1059500083681A690A605B694B60704783689A695B
:105960000A60DB694B6070478368DA6A0A601A6B09
:105970004A605A6B8A609A6BCA60DA6B0A611A6C69
:105980004A615B6C8B61704783689A6C0A60DA6C61
:105990004A601A6D8A605A6DCA609A6D0A61DA6D42
:1059A0004A611B6E8B61704783685A6E0A609A6EFB
:1059B0004A60DA6E8A601A6FCA605A6F0A619A6F1B
:1059C0004A61DA6F8A611A1DD26FCA611A00083201
:1059D000D26F0A621A00883212684A621A008C3248
:1059E000126890338A621B68CB62704783681A0022
:1059F000943212680A601A00983212684A601A00DB
:105A00009C3212688A601A00A0321268CA601A00BA
:105A1000A43212680A611A00A83212684A611A0098
:105A2000AC3212688A611A00B0321268CA611A0078
:105A3000B43212680A621A00B83212684A621A0056
:105A4000BC321268C0338A621B68CB62704710B5E3
:105A500003689B68984710BDF0B58BB0089216009C
:105A6000149A04000492139A18000392129A09934C
:105A700002926A460B6810AD079388CD88C2079BD7
:105A80003200DD6803002000A84720000BB0F0BD05
:105A9000F0B58BB008921600149A04000492139A81
:105AA00018000392129A099302926A460B6810AD8D
:105AB000079388CD88C2079B32001D690300200030
:105AC000A84720000BB0F0BDF0B58BB008921600CF
:105AD000149A04000492139A18000392129A0993DC
:105AE00002926A460B6810AD079388CD88C2079B67
:105AF00032005D6903002000A84720000BB0F0BD14
:105B0000F0B58BB008921600149A04000492139A10
:105B100018000392129A099302926A460B6810AD1C
:105B2000079388CD88C2079B32009D69030020003F
:105B3000A84720000BB0F0BDF0B58BB0089216005E
:105B4000149A04000492139A18000392129A09936B
:105B500002926A460B6810AD079388CD88C2079BF6
:105B60003200DD6903002000A84720000BB0F0BD23
:105B70004B1E9941044B10B54160036004000DF0C9
:105B8000CDFDA060200010BD3C8E020010B5036862
:105B90009B68984710BD37B50400079D08680195BC
:105BA000069D0095C5682000A84720003EBD10B5A1
